:020000040800F2
:10000000400F002001010008A7340008A52C0008BB
:10001000A534000841030008093A00080000000068
:100020000000000000000000000000003135000862
:100030007704000800000000A93400082D360008ED
:100040001B0100081B0100081B0100081B01000820
:100050001B0100081B0100081B0100081B01000810
:10006000790400081B0100081B0100081B0100089F
:100070001B0100081B0100081B0100081B010008F0
:100080001B0100081B0100081B0100081B010008E0
:10009000FD3900081B0100081B0100087F0400084F
:1000A0001B0100081B0100081B0100081B010008C0
:1000B0001B010008AD360008B93600081B01000816
:1000C0001B0100081B0100081B0100081B010008A0
:1000D0001B010008E53900081B010008F139000880
:1000E0001B0100081B0100081B010008DFF80CD0F1
:1000F00000F07EF80048004749400008400F00200B
:100100000648804706480047FEE7FEE7FEE7FEE7B1
:10011000FEE7FEE7FEE7FEE7FEE7FEE7AB36000898
:10012000ED000008202A04DB203A21FA02F0002129
:10013000704721FA02F3D040C2F1200291400843F7
:100140001946704740EA01039B0703D009E008C93C
:10015000121F08C0042AFAD203E011F8013B00F88C
:10016000013B521EF9D27047D2B201E000F8012BD8
:10017000491EFBD270470022F6E710B513460A4627
:1001800004461946FFF7F0FF204610BD2DE9F05F49
:100190000546002092469B468846064681464024F6
:1001A0001BE02846414647462246FFF7BBFF534621
:1001B0005A46C01A914110D311461846224600F003
:1001C00029F82D1A67EB01084F462246012000212D
:1001D00000F020F817EB00094E41201EA4F10104A5
:1001E000DFDC484631462A464346BDE8F09F000022
:1001F000064C074D06E0E06840F0010394E8070074
:1002000098471034AC42F6D3FFF774FFD44500088A
:10021000F4450008202A04DB203A00FA02F100200D
:1002200070479140C2F1200320FA03F31943904034
:100230007047000070B5044600688168C943C9076B
:1002400017D1816821F00101816001F07FF8054636
:100250000AE000BF01F07AF8401B022804D92068A8
:100260008068C043C00706D020688068C043C007CC
:10027000F0D0002070BDA06A40F01000A062E06ADB
:1002800040F00100E062012070BD0000F8B50026DA
:100290000446009600688168C943C9072DD081686B
:1002A00041F001018160164816490068B0FBF1F089
:1002B00000E0401E00900028FBD101F047F8054601
:1002C00016E000BF01F042F8401B022810D9206858
:1002D0008068C043C0070BD0A06A40F01000A06245
:1002E000E06A40F00100E06284F824600120F8BD7B
:1002F00020688068C043C007E4D10020F8BD00003A
:10030000FC00002040420F000EB56946009001201D
:10031000019005200290094800F0B4F808B172B6C7
:10032000FEE7064800F09AFA4FF0FF31034800F06C
:10033000F7F9024800F024F980B20EBD3809002018
:10034000FEE7000030B58BB001F006F8044601F07E
:1003500009F801F00DF804EB44001C4D20F0604159
:100360001BA0696203F052FB00244CF206010594C5
:1003700000914CF28461019101204FF6FF710291CE
:10038000CDE9064008900E200990CDE90314694696
:10039000144800F039FB08B172B6FEE7114800F0CE
:1003A0002FFE08B172B6FEE702210E4800F0B6FA41
:1003B00008B172B6FEE70C48696A41600421C0E9E1
:1003C00002140821016104750BB030BD000000204B
:1003D00043414E5F547845787449643A2025780A41
:1003E0000000000068090020FC0A00203EB5124B06
:1003F00000225C6A114B5C6004249C60C3E9032109
:100400006B4603E0845C9C54521CD2B28A42F9D3FE
:100410000A4902AB6A46A1F5CA7000F091FA20B110
:1004200007A003F0F3FA01203EBD0A4800F0D8FB14
:100430000328FAD100203EBD00000020FC0A002065
:1004400043414E2053656E64206661696C6564218A
:100450000D0A00006809002010B500231A4604E0C8
:10046000845C521C2344DBB2D2B28A42F8D3D84314
:10047000401CC0B210BD7047042000F065BE802053
:1004800000F062BEF8B50024009490F824202546C0
:10049000012A12D0012280F824204A681F23072A4B
:1004A0000DD20668776B521E02EB820293409F4387
:1004B0000B6893401F43776319E00220F8BD06687C
:1004C0000D2A0AD2376BD21F02EB820293409F4360
:1004D0000B6893401F43376309E0F76A0D3A02EB5C
:1004E000820293409F430B6893401F43F7620A6860
:1004F000072306680A2A0AD3F7680A3A02EB42027F
:1005000093409F438B6893401F43F76008E037692F
:1005100002EB420293409F438B6893401F43376135
:100520000A68102A01D0112A20D1124B02689A427F
:1005300017D193681B0219D4936843F400039360A6
:100540000968102912D10C490C4A0968B1FBF2F173
:1005500001EB8101490000E0491E00910029FBD117
:1005600004E0816A41F020018162012480F8245076
:100570002046F8BD00240140FC00002040420F004E
:100580000068C06C704700002DE9F0414FF0000793
:1005900004003D467ED0A06A002628B9E66284F8B1
:1005A0002460204600F07EF82046FFF743FEA16A53
:1005B000C90600D420B1A06A40F01000A06269E032
:1005C000A16A21F4885141F00201A1626268E169E7
:1005D000237B0A4347EA43010A43A1684FF480772B
:1005E000B94209D0012907D05FF0000194F814C086
:1005F000BCF1010F02D00AE03946F7E7F3B1A36A74
:1006000043F02003A362E36A43F00103E36223683B
:10061000D3F804C02CF4694C4CEA010CC3F804C0B4
:1006200021688B68DFF870C003EA0C0313438B600A
:10063000A168B9420BD0012909D00CE0DFF85CC0F9
:10064000A3690CEB43330B4343F40061DFE7218ADA
:100650000D05A5F580152168CB6A23F470032B43A3
:10066000CB62216889680E4B1940914208D1E6623D
:10067000A16A21F0020141F00101A162BDE8F0810F
:10068000A06A20F0020040F01000A062E06A40F092
:100690000100E0620120F1E7FDF7E1FF00E0FFFF6C
:1006A000FE0E1FFF10B586B000210091019102914E
:1006B000039100681649884227D11648816941F4A0
:1006C00000718161816901F400710491816941F0D7
:1006D00010018161816901F010010491816941F08B
:1006E000080181618069032400F0080004900F2054
:1006F000CDE900046946084800F032FD0120CDE94B
:1007000000046946054800F02BFD06B010BD00004E
:10071000002401400010024000100140000C014084
:100720002DE9F84300270D460446009700F00EFE21
:10073000804620688168C90508D5A06A40F020007D
:10074000A06284F824700120BDE8F8834168C905DF
:1007500003D4C06A10F4700F2AD0022001F07EFA90
:100760003B490968B1FBF0F62068036939490B423F
:100770004FEA61014FEAA1121FD1C3684FEA611C21
:1007800013EA0C0F19D103690B4225D1C06810423E
:1007900022D1142023E0681C0AD02DB100F0D6FD30
:1007A000A0EB0800A84203D920680068800725D57F
:1007B000206800688007EED52DE003690B4202D166
:1007C000C168114206D0026923490A4206D1C068B5
:1007D000084203D1542002E0292000E0FC204643D7
:1007E000009816E0681C11D02DB100F0AFFDA0EB11
:1007F0000800A8420AD90098B04207D2A06A40F087
:100800000400A06284F8247003209DE70098401C37
:100810000090B042E6D321686FF012000860A06A31
:1008200040F40070A06220688068C0F3424007284E
:100830000CD1207B50B9A06A20F48070A062A06A1D
:10084000C00403D4A06A40F00100A06200207BE74E
:10085000FC000020244992244992240070B50446EB
:1008600090F8240001280DD0012084F824002046AF
:10087000FFF70CFD02004FF0000005D084F82400C3
:10088000104670BD022070BDA16A40F20123994359
:1008900041F48071A1621F4D23681F49AB4218D1FA
:1008A0000E6816F4702F14D0A66A46F48016A6625D
:1008B0000E68760505D5A66A26F4005646F48056DD
:1008C000A662A66AF6040AD5E66A26F00606E6627D
:1008D00006E0A66A26F48016A6625E68E9E7E06292
:1008E00084F824006FF00200186020688368C3F366
:1008F0004243072B05D1A84208D1096811F4702F93
:1009000004D0816841F480118160B9E7816841F4C5
:10091000A001F9E7002801400424014090F82020BC
:10092000012A07D0022A05D0416A41F480214162A0
:1009300001207047006842690A4342610020704705
:10094000F0B590F820500468A468012D05D0022D60
:1009500003D0416A41F4802153E014F0406F01D18B
:10096000E5004BD5C4F30164022C03D9416A41F47C
:10097000000146E00125A5401D608D684FF4C0735D
:100980009DB1CE6835434E6845EAC605066803EB5F
:100990000417F5514FF4C275076805EB04150E698D
:1009A0007E51097D012905D009E00E88CD6845EA10
:1009B0004655EBE701684E5946F480764E51117961
:1009C000D2F805504FF4C67641EA0525016806EBDA
:1009D00004168D511178D2F801204FF4C47541EA04
:1009E0000221026805EB04155151006803EB041164
:1009F000425842F0010242500020F0BD416A41F4E9
:100A0000001141620120F0BD10B590F8203002685D
:100A1000012B07D0022B05D0416A41F480214162AD
:100A2000012010BDD2F8000240F00100C2F800021F
:100A3000087D00F01F0301209840D2F81C32834348
:100A4000C2F81C32CB69B3B9D2F80C328343C2F876
:100A50000C328C894B6864F31F434C6902EBC4046D
:100A6000C4F840320C890B6864F31F434C6902EBF5
:100A7000C404C4F84432CB69012B16D1D2F80C322D
:100A80000343C2F80C320C884B6864F31F434C6973
:100A900002EBC404C4F840320C89CB6864F31F43F2
:100AA0004C6902EBC404C4F844328B69002BD2F8C1
:100AB00004320FD053EA0003C2F804320B69002B52
:100AC000D2F8143208D00343C2F81432096A01295B
:100AD00004D008E08343EFE78343F5E7D2F81C1224
:100AE0000143C2F81C12D2F8000220F00100C2F843
:100AF0000002002010BD704730B590F82040012C56
:100B000005D0022C03D0416A41F480215DE00468E5
:100B1000002955D02469A40754D04FF4D87405682F
:100B200004EB01142D5915F00405956005682D5945
:100B30004ED0ED08556005682C5904F00204D460CD
:100B40004FF4DA74056804EB01142D5905F00F0514
:100B5000156105682D59C5F30725956105682C5960
:100B6000240C54614FF4DC72046802EB0112A458A7
:100B70001C700468A458240A5C700468A458240CEF
:100B80009C700468A258120EDA704FF4DE7204688A
:100B900002EB0112A4581C710468A458240A5C7169
:100BA0000468A458240C9C710468A258120EDA71CF
:100BB000006881B1016941F020010161002030BD70
:100BC000E468A8E7416A41F400114162012030BDA8
:100BD0006D0D1560AFE7C16841F02001C160EDE720
:100BE0000246002092F82010012901D002290CD1E0
:100BF00011688A68520100D501208A68120100D567
:100C0000401C8968C90000D5401C70472DE9F05F81
:100C10000546006800244669D0F804908768D0F83B
:100C20000CB0D0F810A0D0F81880F10748D0F90720
:100C300014D001218160B80703D5284600F00DFAD1
:100C40000CE0780702D54FF4006407E0380702D5BE
:100C50004FF4805402E0284600F0FEF9F80516D55E
:100C600029684FF480708860B80503D5284600F0E5
:100C7000F6F90CE0780502D544F4005407E0380595
:100C800002D544F4804402E0284600F0E7F9F80376
:100C900016D529684FF480308860B80303D52846FC
:100CA00000F0DFF90CE0780302D544F4004407E0DB
:100CB000380302D544F4803402E0284600F0D0F92D
:100CC000300707D55FEACB6004D52968102044F4CB
:100CD0000074C86070074FF0080707D55FEA0B7013
:100CE00004D52868C760284600F066F9B00706D525
:100CF0002868C068800702D0284600F05FF97006B7
:100D000007D55FEACA6004D52968102044F48064DE
:100D10000861B00607D55FEA0A7004D52868076144
:100D2000284600F069F9F00606D5286800698007B2
:100D300002D0284600F061F9B00308D55FEAC96027
:100D400005D5296810204860284600F057F9F003BF
:100D500007D55FEA097004D528684760284600F087
:100D600081F9300446D55FEA497040D5F00504D5D5
:100D70005FEAC87001D044F00104B00504D55FEA11
:100D8000887001D544F00204700504D55FEA48700C
:100D900001D544F00404300529D518F0700F26D091
:100DA00008F07000402815D006DC102809D0202853
:100DB0000AD0302816D10AE050280ED0602811D170
:100DC0000EE044F008040DE044F010040AE044F0A2
:100DD000200407E044F0400404E044F0800401E013
:100DE00044F480742868816921F070018161296868
:100DF00004204860002C05D0686A204368622846B9
:100E0000FFF779FEBDE8F09F70B5040003D094F8B9
:100E1000200010B104E0012070BD204600F082F8EF
:100E20002068016841F00101016000F08FFA054679
:100E3000052604E000F08AFA401B0A2811D8206831
:100E40004068C007F6D02068016821F00201016007
:100E500000F07CFA05460BE000F078FA401B0A2807
:100E600006D9606A40F40030606284F82060D2E7FE
:100E7000206840688007EFD4207E01282068016840
:100E80003DD021F080010160607E0128206801686A
:100E900038D021F040010160A07E0128206801685F
:100EA00033D021F020010160E07E01282068016834
:100EB0002ED041F010010160207F012820680168D8
:100EC00029D021F008010160607F012820680168B5
:100ED00024D021F004010160D4E902010843D4E9DF
:100EE0000412114308436168491E08432168C86120
:100EF00000206062012084F82000002070BD41F0D5
:100F00008001C0E741F04001C5E741F02001CAE798
:100F100021F01001CFE741F00801D4E741F00401CE
:100F2000D9E7000010B586B000210091019102912F
:100F3000039100681C49884233D11C48C16941F0C3
:100F40000071C161C16901F000710491816941F0D2
:100F5000080181618069164C00F0080004904FF48C
:100F6000807000906946204600F0FAF86015009005
:100F700002200190032003906946204600F0F0F81B
:100F80000C48416821F4C04141F0E06141F48041E6
:100F9000416000221146142000F02EFE142000F0C3
:100FA0001DFE06B010BD00000064004000100240AD
:100FB000000C014000000140704700000C4910B5D2
:100FC0000120C8720B4A01F148030021A2F5D67036
:100FD000FFF792FD064A074900204832A2F11003AC
:100FE000096902E0145C1C54401C8142FAD810BD0F
:100FF00000000020140B002070477047704700006D
:1010000070B5044690F82000012804D0606A40F4CE
:101010000020606218E0022084F820002068016847
:1010200021F00101016000F091F905460EE000BFDA
:1010300000F08CF9401B0A2808D9606A40F400309F
:101040006062052084F82000012070BD206840689F
:10105000C007EDD1606270BD704770477047704740
:1010600070477047704710B590F821100022022990
:1010700005D00421816380F82020012010BD016883
:101080000B6823F00E030B6001680B6823F001036B
:101090000B6090F84030C46B012101FA03F36360E8
:1010A00080F8211080F82020104610BD10B590F86F
:1010B00021100024022903D00421816301243DE092
:1010C00001680A6822F00E020A6001680A6822F0CC
:1010D00001020A601A4A0168914201D1012121E00E
:1010E000174A1432914201D110211BE0144A2832D0
:1010F000914201D1891515E0114A3C32914201D14A
:1011000089140FE00E4A5032914202D14FF48031DF
:1011100008E00B4A6432914202D14FF4801101E0A1
:101120004FF08071064A083A5160012180F8211081
:10113000002180F82010416B01B18847204610BD86
:101140000800024070470000044910B50A680242D6
:1011500002D00860FFF7F6FF10BD00001404014044
:101160002DE9F84FDFF8B891002409F1040A0AF1DB
:10117000040B23460F270BF1040EC9E00125A540FF
:101180002A40AA427DD1674ED1F804C0ACEB0608D4
:10119000B44532D014DCBCF1030F3AD009DCBCF109
:1011A000000F2AD0BCF1010F1CD0BCF1020F31D1CD
:1011B0001DE0BCF1110F17D0BCF1120F2AD119E0BC
:1011C000B8F5881F19D006DCB8F5803F15D0B8F502
:1011D000801F1FD111E0B8F5001F0ED0B8F5041F15
:1011E00018D10AE0CB6815E0CB681B1D12E0CB6874
:1011F00008330FE0CB680C330CE08B682BB1012B6C
:101200004FF0080303D0456104E0042302E00561C8
:1012100000E00023FF2A01D8064601E000F10406A1
:101220004FEA840501D9A5F12005D6F8008007FA18
:1012300005FC28EA0C0803FA05F548EA0508C6F893
:1012400000804D68ED0062D5374DAE6946F001066D
:10125000AE61AD6924F0030605F001050095334D3C
:1012600006EB050CDCF80850A607360F07FA06F85F
:1012700025EA0805DFF8B880404503D14FF00008A3
:1012800017E044E0DFF8AC80404502D14FF00108A0
:101290000FE0DFF8A480404502D14FF0020808E0DB
:1012A000DFF89880404502D14FF0030801E04FF08D
:1012B000040808FA06F848EA0508CCF808804D68E2
:1012C000D9F80060ED034D4601D5164300E0964382
:1012D0002E604D68DAF80060AD03554601D516431F
:1012E00000E096432E604D68DBF80060ED025D463D
:1012F00001D5164300E096432E604D68DEF800608D
:10130000AD02754601D5164300E096432E60641C7D
:101310000D682A46E5407FF431AFBDE8F88F000044
:1013200000040140000011100010024000000140C4
:1013300000080140000C0140001001400014014071
:101340000AB1016170470904FBE7000001488068A9
:1013500070470000F000002001480068704700005E
:10136000E8F7FF1F0148006870470000ECF7FF1F17
:101370000148006870470000F0F7FF1F70B50400D7
:1013800025D094F83D00002520B984F83C50204633
:1013900000F098FB242084F83D002068016821F0CB
:1013A000010101602068016841F40041016020688A
:1013B000016821F40041016000F0C0FD4D4A616800
:1013C000914201D84C4900E04C49884201D20120A9
:1013D00070BD4B492368B0FBF1F15E6826F03F0613
:1013E0000E435E606368934206D94FF49673594387
:1013F0004FF47A73B1FBF3F12368491C1E6A26F09F
:101400003F06314319626168914210D84900401E7D
:10141000B0FBF1F2521CC2F30B02042A01D20420E9
:1014200022E0B0FBF1F0401CC0F30B001CE0A2680E
:10143000F2B301EBC10303EB0116431EB3FBF6F35A
:101440005B1C43F480431B0549D092B301EBC102FE
:1014500002EB0111401EB0FBF1F0401CC0F30B0089
:1014600040F4804040F400402168CA694CF6FF73A4
:101470009A431043C861D4E9071001432068026809
:1014800022F0C00211430160D4E903010143206846
:10149000826848F2FF339A4311438160D4E9050121
:1014A00008432168CA6822F0FF021043C86001E0C7
:1014B0000EE016E02068016841F00101016025643A
:1014C000202084F83D00256384F83E50002070BD44
:1014D00001EB4106431EB3FBF6F35B1CB3E70120AF
:1014E000C2E701EB4101401EB0FBF1F0401CC0F32C
:1014F0000B00B7E7A086010080841E0000093D00B4
:1015000040420F002DE9F84F0025DDF8289098465D
:1015100017468A4604460095FFF718FF064694F8DA
:101520003D0020287AD119230122834920460096C4
:1015300001F038FD0028F5D194F83C0001286DD069
:10154000012084F83C0020680168C90703D10168C4
:1015500041F0010101602068016821F4006101602F
:10156000222084F83D00102084F83E002564676244
:10157000A4F82A80608D20857048E06233464A4690
:101580005146204601F0A6FB00287DD1208DDFF8D2
:10159000B081202768B1012814D002282068016892
:1015A0001ED041F48061016020684169806900902B
:1015B000B5E02068416981690091016841F40071DA
:1015C0000160ACE02068016821F48061016072B6BE
:1015D0002068416981690091016841F400710AE065
:1015E00041F40061016072B620684169816900912F
:1015F000016821F48061016062B690E0032868D838
:1016000001280CD002284B464FF0000241462046EC
:1016100000960FD001F0C6FCB0BB10E08AE0324665
:101620004946204601F03DFD70BB20680069616AB3
:1016300008706BE001F0B6FC30BB72B634E0206895
:10164000016821F48061016072B620680069616AF6
:101650000870606A401C6062208D401E2085608D8D
:10166000401E6085374846F2A8110068B0FBF1F0D3
:10167000C0EBC00000EB80000090401E009008D03E
:1016800020684069C04300E029E040070CD500987D
:10169000F3E744F8305F6773A573206940F02000DA
:1016A000206162B625731AE02068016841F4007178
:1016B000016020680069616A0870606A401C6062AD
:1016C000218D491E2185618D491E618562B6216883
:1016D0001AE032464946204601F0E3FC10B10120F1
:1016E000BDE8F88F20680069616A0870606A401C74
:1016F0006062218D491E2185618D491E61852168A9
:101700004A69D24352070AD409690170606A401CD1
:101710006062208D401E2085608D401E6085208D7A
:1017200000287FF46BAF84F83D7084F83E5084F855
:101730003C50D5E70220D3E7020010000000FFFF75
:1017400004000100FC0000202DE9F84F1F469046E0
:101750008A460446DDF82890FFF7F8FD054694F820
:101760003D0020287FD119230122404920460095C1
:1017700001F018FC002876D194F83C00012872D0C2
:10178000012084F83C0020680168C90703D1016882
:1017900041F0010101602068016821F400610160ED
:1017A000212084F83D00102084F83E0000262664A5
:1017B000C4F824806785608D20852D48E0622B4623
:1017C0004A465146204601F0FBFA90B9206841692B
:1017D0008069009036E02A464946204601F094FC94
:1017E00050B1206C042804D12068016841F40071D4
:1017F00001600120BDE8F88F606A21680078086107
:10180000606A401C6062618D491E6185218D491EA0
:1018100089B2218522685369DB435B070BD451B140
:1018200000781061606A401C6062608D401E6085B7
:10183000208D401E20852A464946204601F08CFB1B
:101840000028CED1208D0028C5D154F83D0B016869
:1018500041F400710160202004F81E09E6776677E4
:101860000020C7E7FFE70220C4E7000002001000E5
:101870000000FFFF2DE9FF4F83B00025DDE910795F
:101880009A4693460446DDF848800095FFF75EFDD2
:10189000064694F83D0020287CD119230122854971
:1018A0002046009601F07EFB0028F5D194F83C001C
:1018B00001286FD0012084F83C0020680168C90726
:1018C00003D1016841F0010101602068016821F441
:1018D00000610160222084F83D00402084F83E0031
:1018E00025646762A4F82A90608D20857248E062C2
:1018F000CDE9008653465A462046049901F0AEFAD7
:1019000000287DD1208DDFF8B491202768B101280F
:1019100014D00228206801681ED041F48061016063
:101920002068416980690090B6E02068416981695A
:101930000091016841F400710160ADE02068016828
:1019400021F48061016072B620684169816900916B
:10195000016841F400710AE041F40061016072B66F
:101960002068416981690091016821F4806101600A
:1019700062B691E0032868D801280CD002284346BB
:101980004FF000024946204600960FD001F00AFBB6
:10199000B0BB10E08BE032464146204601F081FBAF
:1019A00070BB20680069616A08706CE001F0FAFAA7
:1019B00030BB72B634E02068016821F480610160B8
:1019C00072B620680069616A0870606A401C6062D3
:1019D000208D401E2085608D401E6085384846F26F
:1019E000A8110068B0FBF1F0C0EBC00000EB800074
:1019F0000090401E009008D020684069C04300E07D
:101A000029E040070CD50098F3E744F8305F67738E
:101A1000A573206940F02000206162B625731AE0AA
:101A20002068016841F40071016020680069616A02
:101A30000870606A401C6062218D491E2185618D9D
:101A4000491E618562B621681BE032464146204648
:101A500001F027FB18B1012007B0BDE8F08F206826
:101A60000069616A0870606A401C6062218D491ECD
:101A70002185618D491E618521684A69D2435207DB
:101A80000AD409690170606A401C6062208D401EA2
:101A90002085608D401E6085208D00287FF46AAF10
:101AA00084F83D7084F83E5084F83C50D4E702201E
:101AB000D2E70000020010000000FFFF0400010058
:101AC000FC00002010B586B0002100910191029128
:101AD00003910068104988421BD1104CA06940F066
:101AE0000800A061A069694600F0080004904FF466
:101AF0004060009012200190032003900848FFF7F7
:101B00002FFBE06940F48000E061E06900F48000B0
:101B1000049006B010BD00000058004000100240C4
:101B2000000C0140024881680278114481607047CE
:101B3000F0000020074810B5016841F01001016075
:101B4000032000F079F8002000F006F800F024F8F7
:101B5000002010BD0020024070B50D4D04464FF42A
:101B60007A712878B1FBF0F00A490968B1FBF0F00E
:101B700000F0CAFB48B9102C07D200222146501EA3
:101B800000F03AF800206C6070BD012070BD0000CC
:101B9000F0000020FC0000200E4808B5816941F0EB
:101BA00001018161816901F001010091C16941F088
:101BB0008051C161C06900F080500090052000F0A4
:101BC0003BF80548416821F0E06141F00071416057
:101BD00008BD00000010024000000140002809DBA1
:101BE00000F01F02012191404009800000F1E02037
:101BF000C0F8001170470000F0B40E4B1B680C4693
:101C0000C3F30223C3F10705042D00D90425191DD0
:101C1000072901D2002300E0DB1E012606FA05F1A8
:101C2000491E214099409E40761E16403143F0BC2B
:101C300001F0FCBE0CED00E0064900F00702086868
:101C40004FF6FF03184040EA0220034A10430860A1
:101C5000704700000CED00E00000FA0510B529A463
:101C600001461DCC86B08DE81D002AA02A4C0068D4
:101C700004900020012923D002293AD010291DD137
:101C800061682268D20119D5C1F38342C9031DF8E6
:101C9000020009D5616804AAC1F34041515C1F4AA2
:101CA000B2FBF1F1484301E01D4948436168490234
:101CB00004D440005FF00301B0FBF1F006B010BDAA
:101CC000226AC2F30121012903D1920701D5C80379
:101CD000F4E7022905D1626A920702D549F640402D
:101CE000ECE70329EAD121688903E7D54FF22440C4
:101CF000E4E700F033F96168C1F38131491C490020
:101D0000DAE7000002030405060708090A0B0C0DB8
:101D10000E0F1010010200000010024000127A00A5
:101D200000093D002DE9F84305460078354CC00711
:101D300054D0E0690026C00008D4E06940F080502B
:101D4000E061E069012600F0805000902E480168B3
:101D5000C90512D40168804641F480710160FFF723
:101D6000F5FA074605E000BFFFF7F0FAC01B64284C
:101D700023D8D8F80000C005F6D5206A10F44070CA
:101D800021D0A98801F4407181421CD0206A1F49EA
:101D9000012220F440700A6000220A602062C0071D
:101DA00011D0FFF7D3FA074641F2883808E000BFA8
:101DB000FFF7CCFAC11B414502D90320BDE8F883E7
:101DC000206A8007F4D5206A696820F440700843CF
:101DD00020621EB1E06920F08050E0612878800721
:101DE00005D56068A96820F4404008436060287801
:101DF000C00605D56068E96820F48000084360608B
:101E00000020DBE700100240007000404004424226
:101E10002DE9F0470F46050061D0434E306800F0D1
:101E20000700B84209D2306820F00700384330601C
:101E3000306800F00700B84251D128683B4C810758
:101E400012D5400703D5606840F4E06060602878F0
:101E5000000703D5606840F4605060606068A9685E
:101E600020F0F000084360602878C00728D0686838
:101E7000012810D02168022810D0890700292EDA05
:101E8000616821F0030101436160FFF75FFA80465A
:101E900041F288390DE021688903EFE78901EDE718
:101EA000FFF754FAA0EB0801494502D90320BDE829
:101EB000F0876068696800F00C00B0EB810FEFD12B
:101EC000306800F00700B8420BD9306820F00700F6
:101ED00038433060306800F00700B84201D001207C
:101EE000E5E72878400705D56068E96820F4E060F8
:101EF000084360602878000706D56068296920F4E7
:101F0000605040EAC100606000F038F86168084A3B
:101F1000C1F30311515CC8400649086006480068D7
:101F2000FFF71AFE0020C2E7002002400010024026
:101F3000BC450008FC000020F400002004480549CE
:101F400000684968044AC1F30221515CC8407047E7
:101F5000FC00002000100240CC4500080448054960
:101F600000684968044AC1F3C221515CC840704707
:101F7000FC00002000100240CC45000812A185B0F2
:101F80000FC98DE80F0014A0144A0068049051682E
:101F9000134801F00C03042B10D0082B0ED1C1F311
:101FA0008343C9031DF803000AD5516804AAC1F38D
:101FB0004041515C0A4A5043B0FBF1F005B0704714
:101FC00008494843FAE70000020304050607080928
:101FD0000A0B0C0D0E0F1010010200000010024041
:101FE00000127A0000093D002DE9F84F040070D07E
:101FF0002078C04DC00749D06868C0F3810001282F
:1020000007D06868C0F38100022809D16868C0035E
:1020100006D52868800339D560680028E7D035E008
:102020006068B0F5803F0BD010B1B0F5A02F11D093
:10203000286820F480302860286820F4802002E09E
:10204000286840F480302860606890B1FFF77EF91E
:1020500006460AE0286840F480202860F0E700BFC8
:10206000FFF774F9801B642873D828688003F7D5BC
:102070000CE0FFF76BF9064605E000BFFFF766F9D5
:10208000801B6428F0D828688003F7D420789A4E03
:1020900080074FF001094FF0000839D5686810F04B
:1020A0000C0F07D06868C0F38100022809D1686866
:1020B000C00306D42868800714D52069012808D1F8
:1020C00010E02069B0B1C6F80090FFF73FF907466D
:1020D00005E00AE1FFF73AF9C01B0228C4D82868D6
:1020E0008007F7D52868616920F0F80040EAC10050
:1020F00028600DE0C6F80080FFF728F9074604E0E5
:10210000FFF724F9C01B022823D828688007F7D4DA
:10211000207800072CD57948A169D9B1C0F8009082
:10212000FFF714F9074604E0FFF710F9C01B022877
:102130000FD8686A8007F7D571484FF4FA510068E4
:10214000B0FBF1F0009000BF0098411E0091FAD260
:102150000EE080E0C0F80080FFF7F8F8074604E0E2
:10216000FFF7F4F8C01B022875D8686A8007F7D417
:102170002078400760D5E8690027C00008D4E869E6
:1021800040F08050E861E869012700F0805000903D
:102190005C480168C90513D40168834641F4807125
:1021A0000160FFF7D3F8824606E000BFFFF7CEF8E4
:1021B000A0EB0A0064284ED8DBF80000C005F5D576
:1021C000E06801280AD008B1052813D0286A20F059
:1021D00001002862286A20F0040002E0286A40F02A
:1021E00001002862E06841F2883B98B1FFF7AEF841
:1021F00082460BE0286A40F004002862EEE700BF48
:10220000FFF7A4F8A0EB0A0159455AD8286A8007BD
:10221000F6D50CE0FFF79AF8824605E0FFF796F84E
:10222000A0EB0A0159454CD8286A8007F6D41FB1A3
:10223000E86920F08050E861E06988B36968C1F31B
:102240008101022944D00228C6F8608004D0FFF73B
:102250007DF8044638E034E0FFF778F8074604E0FC
:10226000FFF774F8C01B02282BD828688001F7D428
:10227000206AB0F5803F05D16868A16820F400307D
:1022800008436860D4E908010843696821F47411BF
:1022900008436860C6F86090FFF758F8044606E007
:1022A00025E000BFFFF752F8001B022809D8286874
:1022B0008001F7D51BE000BFFFF748F8001B02289C
:1022C00002D90320BDE8F88F28688001F4D40EE01D
:1022D0000128F7D06868226A00F48031914204D165
:1022E000616A00F47010884201D00120EAE7002002
:1022F000E8E7000000100240000042428004424231
:10230000FC0000200070004010B5401EB0F1807F3E
:1023100001D3012010BD4FF0E02460610F21601750
:1023200001F084FB0020A06107202061002010BD87
:102330007047704770B590F83C20012A26D00124E0
:1023400080F83C40022280F83D2003685A689D686E
:1023500022F070060A6832435A600D4B02689A42B6
:1023600008D0B2F1804F05D00A4B9A4202D00A4BF6
:102370009A4204D1496825F080031943916080F89E
:102380003D40002180F83C10084670BD022070BD21
:10239000002C0140000400400008004010B504007B
:1023A00003D094F83D0010B107E0012010BD0020DB
:1023B00084F83C00204600F01FF8022084F83D001D
:1023C000211D206801F07EF9012084F8460084F880
:1023D0003E0084F83F0084F8400084F8410084F80F
:1023E000420084F8430084F8440084F8450084F8EF
:1023F0003D00002010BD000008B5154A01681548D1
:1024000091420ED1C16941F00201C161C06900224F
:1024100000F00200009011461D20FFF7EDFB1D208B
:1024200010E00D4A914211D1C16941F00401C1612E
:10243000C069002200F00400009011461E20FFF742
:10244000DBFB1E20BDE80840FFF7C8BB08BD00004D
:1024500000040040001002400008004090F83D10C9
:10246000012901D001207047022180F83D10016848
:10247000CA6842F00102CA6000680B49884208D06D
:10248000B0F1804F05D00949884202D008498842FE
:1024900004D1816801F00701062903D0016841F0E9
:1024A0000101016000207047002C01400004004041
:1024B0000008004070B5044690F83C00012817D091
:1024C000012584F83C50022084F83D002068826891
:1024D00022F0770222F47F4282600868502830D0D0
:1024E0000DDC20284DD005DC98B310283BD148E006
:1024F000022070BD302844D0402834D139E0602813
:1025000028D0702806D0B0F5805F2CD0B0F5005FE1
:1025100029D10AE0CB68D1E90121206801F008F94E
:102520002068816841F0770109E0CB68D1E9012199
:10253000206801F0FDF82068816841F480418160E5
:1025400011E0CA684968206801F004F95021206848
:1025500007E016E0CA684968206801F00CF96021BC
:10256000206801F0EFF884F83D50002084F83C002A
:1025700070BDCA684968206801F0ECF84021206805
:10258000EFE7226801461046EBE7704770B5044656
:10259000006801694FF00005C943890715D4C16877
:1025A000C943890711D4E91E016101202077206801
:1025B00080698007204602D0FFF7E7FF04E000F0C3
:1025C00098F8204600F096F8257720680169C943FD
:1025D000490717D4C168C943490713D46FF00401F0
:1025E0000161022020772068806910F4407F204636
:1025F00002D0FFF7CAFF04E000F07BF8204600F0AD
:1026000079F8257720680169C943090716D4C1689C
:10261000C943090712D46FF0080101610420207733
:102620002068C0698007204602D0FFF7AEFF04E0B3
:1026300000F05FF8204600F05DF82577206801691A
:10264000C943C90617D4C168C943C90613D46FF07A
:1026500010010161082020772068C06910F4407FD4
:10266000204602D0FFF791FF04E000F042F8204638
:1026700000F040F8257720680169C943C90708D1EF
:10268000C168C943C90704D1891E0161204600F011
:1026900033F820680169C943090609D4C168C943F0
:1026A000090605D46FF0800101612046FFF740FE66
:1026B00020680169C943490609D4C168C94349066C
:1026C00005D46FF040010161204600F087F82068D2
:1026D0000169C94389060BD4C168C943890607D477
:1026E0006FF0200101612046BDE87040FFF721BE78
:1026F00070BD70477047000070B502683448002113
:10270000344C86B082420BD1608A401C80B2608219
:10271000B0F57A7F01D3618200E008B901206072D0
:102720002D48824246D1A08A2A4E401C80B25036A3
:10273000A082642801D3A18219E0C0B15FF0000536
:1027400005EB850006EB800114226846FDF7FAFCD4
:102750009DF80100A18A884235D19DF8000000282B
:102760002AD000BFBDF8101029D1019828E04FF001
:10277000000400BF04EB840006EB80014FF014025C
:102780006846FDF7DFFC9DF8010080B19DF8000070
:10279000002804D0BDF8101004D1019803E0BDF862
:1027A0000810F9E703984FF00102FEF7C9FD641C19
:1027B000082CDFDB06B070BDBDF80810D4E7039825
:1027C0000022FEF7BDFD6D1C082DB9DBF2E700000D
:1027D00000040040000000200008004070477047DF
:1027E00070470000F8B5026804461068D168536964
:1027F00010F00F0F4FF0000553D003F0010601F465
:10280000907737435FD0C20705D0CA0503D5226C45
:1028100042F001022264420705D5DA0703D0226C98
:1028200042F002022264820705D5DA0703D0226C47
:1028300042F004022264020707D501F0200232436D
:1028400003D0226C42F008022264226C002A34D0A9
:10285000800604D5880602D5204600F0BEFF206819
:102860004069216CC0F38010090700D430B32046C2
:1028700000F09BFF2068416949061BD5416921F0A2
:1028800040014161A06BA8B158494163A06BFEF7BC
:102890000DFC002811D0A06B416B01B0BDE8F040E9
:1028A000084783060FD58B060DD52046BDE8F840B6
:1028B00000F093BF2046FFF793FFF8BD2046FFF7D7
:1028C0008FFF2564F8BD266B2023012E52D1C6064A
:1028D00050D5CE064ED5106850680090506940061D
:1028E0002AD5A16B086840680004000CEAD0A68DC8
:1028F0008642E7D9E0858869202818D0D06820F47E
:102900008070D0602068416921F001014161206838
:10291000416921F04001416184F83E30256320681F
:10292000C16821F01001C160A06BFEF79CFBA08D77
:10293000E18D401A81B219E0A08DE18D401A81B27B
:10294000E08D0028BED00029BCD0D06820F4907063
:10295000D0602068426922F00102426184F83E3072
:1029600025632068C26822F01002C2602046FFF78B
:1029700036FFF8BD05062BD50D0629D594F83D0088
:102980002128F6D1A068B0F5805F01D12069B0B1EF
:10299000206A411C2162216800784860E08C401E5A
:1029A0000004000CE084E4D12068C16821F08001BB
:1029B000C1602068C16841F04001C160F8BD206A73
:1029C0000088C0F308005060206A801C2062E5E7A0
:1029D0004006F3D54806F1D5D168204621F04001E4
:1029E000D16084F83D3000F05CF9F8BD9B370008F9
:1029F00070B5040004D094F83D00002510B106E045
:102A0000012070BD84F83C50204600F023F82420BB
:102A100084F83D002068C16821F40051C16020465F
:102A200000F036FF2068016921F4904101612068BF
:102A3000416921F02A0141612068C16841F40051D7
:102A4000C1602564202084F83D0084F83E00002009
:102A500070BD000070B586B000240094019402940B
:102A60000394364E0368364802210322354DB342A3
:102A70002DD1836943F480438361836903F48043E8
:102A80000493836943F00803836180692E4E00F04C
:102A9000080004904020CDE90001039269463046C9
:102AA000FEF75EFB8020CDE90004694630460294C3
:102AB000FEF756FB686840F0E06040F00400686094
:102AC000002211462520FFF797F8252031E01F4E00
:102AD000B34230D1C36943F48023C361C36903F4B3
:102AE00080230493836943F0100383618069039218
:102AF00000F0100004903015CDE90001144E694635
:102B00003046FEF72DFBF014CDE90004694630464F
:102B10000294FEF725FB686820F0300040F0E0608A
:102B200040F010006860002211462720FFF764F88B
:102B30002720FFF753F806B070BD000000380140B1
:102B40000010024000000140000C0140004800401D
:102B50000010014090F83E30202B0ED159B152B1F7
:102B600090F83C30012B08D0012380F83C30002342
:102B7000036300F0E9BE01207047022070470000A7
:102B800010B5044600681549884208D114480078F9
:102B900001F044FC012212491248FFF7DBFF124901
:102BA0002068884219D10E49491F01F10802C879ED
:102BB000312804D20D4C13782354401CC87110786E
:102BC0000A2808D0064907480122C91CBDE8104060
:102BD0004430FFF7BFBF0120887110BD00380140AD
:102BE00005000020740A0020004800400401002075
:102BF0002DE9F843044690F83D001F4616460D4661
:102C000020284CD1C5B1BEB194F83C00012846D073
:102C1000012084F83C004FF00008C4F840802120D7
:102C200084F83D00FEF792FBA6848146E684A06806
:102C3000B0F5805F03D004E00120BDE8F88320698F
:102C400028B12E465FF0000584F83C800EE0002697
:102C5000FAE78021204600F092FEA0B9AEB116F846
:102C6000010B21684860E08C401EE084E08C4B46FC
:102C70004FF0000200970028EBD14FF040012046B2
:102C800000F07DFE30B10320D7E735F8020BC0F32A
:102C90000800E6E7202084F83D000020CDE7022070
:102CA000CBE77047FEE701684A69D24352050FD46B
:102CB0006FF480624A61002140F8301F2022427385
:102CC0008173026942F004020261017301207047BE
:102CD000002070472DE9F84F0446C06A1E4693460F
:102CE0000D4621680A6842F480620A60082807D00D
:102CF000012805D010F5803F02D0206B112804D1A7
:102D00002068016841F4807101604FF001195B4651
:102D1000002249462046009600F044F94FF400781E
:102D200040B120680068C00501D5C4F84080032088
:102D3000BDE8F88F2069DFF884A0B0F5804F0FD090
:102D40000620216800EAD51747F0F00008613346F5
:102D50005A460AF10601204600F058F958BB03E034
:102D6000E8B240F001001CE02168E8B20861334697
:102D70005A465146204600F049F9E0B920684169B9
:102D800081690091016841F4807101605B46002215
:102D900049462046009600F005F90028C1D147F0C9
:102DA000F1002168086133465A465146204600F03A
:102DB0002DF90028BCD00120BAE700000200010074
:102DC000F8B50446C06A1E460D461746082807D0C7
:102DD000012805D010F5803F02D0206B122804D1C5
:102DE0002068016841F480710160134600224FF0B1
:102DF00001112046009600F0D5F840B12068006827
:102E0000C00502D54FF4007020640320F8BD20698E
:102E1000B0F5804F0ED00620216800EAD51040F0B2
:102E2000F000086133463A460B49204600F0EEF8C0
:102E300078B902E005F0FE0000E0E8B22168086120
:102E4000054933463A46891F204600F0DFF800283E
:102E5000DCD00120F8BD0000080001002DE9F84F8A
:102E60000446006889460B9D01689846174641F460
:102E7000806101602068016841F480710160009503
:102E80004FF0011B0022594620460A9B00F08AF8A9
:102E90004FF4007A40B120680068C00501D5C4F83D
:102EA00040A00320BDE8F88F216809F0FE0008610A
:102EB0002B46284920460A9A00F0A8F8F0BB206863
:102EC0004169806900902A4620460A9900F01CF961
:102ED00040B1206C04283AD12068016841F40071A7
:102EE000016034E0FEB2B8F1010F09D02168380A60
:102EF00008612A4620460A9900F006F90028E8D120
:102F0000206806612A4620460A9900F0FDF800284C
:102F1000DFD12068016841F48071016000950022D2
:102F2000594620460A9B00F03DF80028B3D121689D
:102F300009F0FF0040F00100086100E007E02B46C7
:102F4000044920460A9A00F061F80028AAD001201E
:102F5000A8E700000200010070B516460D460446C1
:102F60000DE02046FFF79FFE08B1012070BD681CF0
:102F700005D0FEF7EBF9801BA84207D835B12068D1
:102F80004069C0434007ECD4002070BD002044F8E5
:102F9000300F20216173A073216941F0200121616C
:102FA0002073E2E72DE9F0471E4690460D460446A1
:102FB000C1F30747DDF8209008E0701C06D0FEF74B
:102FC000C5F9A0EB0900B0420FD876B12068012FF7
:102FD00018D0806925EA00000004000C14D00021FC
:102FE0004145EAD00020BDE8F087002044F8300FCA
:102FF00020216173A073216941F0200121612073B8
:103000000120F0E74069E5E70121E9E72DE9F04714
:103010009A4691460E46044600254FF02008C1F31B
:10302000074725E020684069C043400514D4206864
:10303000016841F40071016021686FF480604861AB
:10304000256384F83D8084F83E50206C40F00400F5
:10305000206484F83C501FE0B9F1FF3F08D0FEF730
:1030600075F9A0EB0A0149450CD8B9F1000F09D058
:103070002068012F13D0806926EA00000004000CAC
:103080000BD0CFE744F8305F84F80D80A57320693A
:1030900040F02000206125730120BDE8F0874069E1
:1030A000EAE72DE9F041002590460E460446202728
:1030B00017E04069C043C0060CD454F8301B6FF0D1
:1030C0001000486144F810596777A577206A20629C
:1030D000257717E0FEF73AF9A0EB0800B04208D8D0
:1030E0003EB120684169C9434906E2D40020BDE8E9
:1030F000F08144F8305F6773A573206940F02000C9
:10310000206125730120F2E770B516460D4604468E
:103110000DE02046FFF7C7FD08B1012070BD681C17
:1031200005D0FEF713F9801BA84207D835B12068F7
:103130004069C0430006ECD4002070BD002044F874
:10314000300F20216173A073216941F020012161BA
:103150002073E2E73EB500211148009101910F4A2A
:103160000291026081600173017501244FF46022B5
:103170000461C2614160FDF707FA08B172B6FEE76B
:103180000A20CDE900040520029069460448FDF7B5
:1031900079F9002801D072B6FEE73EBD0024014057
:1031A000380900200E4810B50C4901600C2141601F
:1031B00000214FF400328160C0E90312D200426165
:1031C000017641768176C17601774177FDF71CFE65
:1031D000002801D072B6FEE710BD00000064004078
:1031E000680900202DE9F04F85B000245148009473
:1031F000019402940394816941F010018161816915
:1032000001F010010491816941F02001816181691F
:1032100001F020010491816941F00401816181691B
:1032200001F004010491816941F008018161806924
:10323000DFF8048100F0080043F2F035049000222A
:1032400029464046FEF77CF8DFF8F0B048F65F7795
:10325000002239465846FEF773F8012220215846CD
:10326000FEF76EF8DFF8D8A049F238090022494687
:103270005046FEF765F8002204213248FEF760F858
:103280000095022601250396CDE901546946404682
:10329000FDF766FF00970396CDE90154694658464D
:1032A000FDF75EFF2020CDE900050320CDE90240B7
:1032B00069465846FDF754FF234F8020CDE90007AB
:1032C000694602945846FDF74BFF4FF00408CDF8CD
:1032D0000080CDE9017469465046FDF741FFCDF805
:1032E00000900396CDE9015469465046FDF738FF3A
:1032F000CDF800800396CDE9015469461148FDF7E9
:103300002FFF002211460820FEF776FC0820FEF76A
:1033100065FC002211461720FEF76EFC1720FEF711
:103320005DFC012220215846FEF70AF805B0BDE8F1
:10333000F08F000000100240001001400008014022
:10334000000C0140001401400000211010B586B0AF
:1033500000241748009401940294039404941349A0
:10336000059401604721C0E9011440F2E731C0E94A
:10337000031480218161FFF711F808B172B6FEE7EE
:103380004FF48050009069460948FFF793F808B160
:1033900072B6FEE7049404A905480594FEF7CAFF37
:1033A000002801D072B6FEE706B010BD0004004050
:1033B000E409002010B586B0002417480094019459
:1033C0000294039404941349059401604721C0E9D1
:1033D00001141321C0E9031480218161FEF7DEFF8F
:1033E00008B172B6FEE74FF48050009069460A4873
:1033F000FFF760F808B172B6FEE7049404A9064826
:103400000594FEF797FF002801D072B6FEE706B0DC
:1034100010BD0000000800402C0A00200E4810B526
:103420000C4901604FF4E1314160002181600C22C0
:10343000C160C0E904128161C161FFF7D9FA08B126
:1034400072B6FEE7BDE81040012204490248FFF7CA
:1034500081BB000000380140740A002005000020F4
:103460000E4810B50C4901604FF4E1314160002174
:1034700081600C22C160C0E904128161C161FFF763
:10348000B7FA08B172B6FEE7BDE810400122044960
:103490000248FFF75FBB000000480040B80A002068
:1034A00008000020FEE77047704700000749D1E997
:1034B0000C329A4209D00648824202D3A0F58060BD
:1034C00048634A6B12F8010B4A6370470000002002
:1034D0003605002010B586B00020441E8DF810007F
:1034E000012304AA402111480094FEF72DF908B1E8
:1034F00072B6FEE7022303AA40210C480094FEF7AF
:1035000001F808B172B6FEE7022003A9CDE9001068
:1035100001230022029440210448FEF7ABF908B1D0
:1035200072B6FEE7BDF80C0006B010BD9009002091
:10353000704700002DE9F041194C1A4DAC20207065
:1035400028886070000AA0706888E070000A207106
:10355000A8886071000AA07107212046FCF746FF89
:10356000A4F14006307310A000F050FA0027376431
:10357000AD2077642070E8886070000AA070288908
:10358000E070000A207105212046FCF72FFF307300
:103590000CA000F03BFA37647764BDE8F0810000CE
:1035A00040000020300B002053656E6420414443EE
:1035B00028302D322920636F6D706C65746564202E
:1035C000210D0A0053656E642041444328332D3495
:1035D0002920636F6D706C6574656420210D0A008D
:1035E00070B50C4CAB2104F14000258B0170457087
:1035F000290A81700321FCF7F9FE20730026266456
:103600006664208BE082294603A000F0FFF9A670D3
:1036100070BD00000000002054434139353335208F
:10362000696E7075743A2025780A0000FEF77ABA40
:1036300030B593B028216846FCF79DFD14210AA8F7
:10364000FCF799FD002501210F9510950804CDE99F
:10365000001011951295029502240491CDE90740BE
:103660004FF4E01009906846FEF7BEFC08B172B650
:10367000FEE70AA90F2081E831004FF480600D9029
:103680000E9002210AA8FEF7C3FB08B172B6FEE74E
:103690004FF4004011900F940FA8FEF743FB002851
:1036A00001D072B6FEE713B030BD70470148FEF797
:1036B0006DBF0000E40900200148FEF767BF00006D
:1036C0002C0A0020F0B50268164B174C174D4FF02E
:1036D0008047984205D0B84203D0A04201D0A8420A
:1036E00003D122F070064A683243984205D0B842AE
:1036F00003D0A04201D0A84203D122F44074CA688A
:1037000022434C6922F08002224302608A68C2622E
:103710000A688262984201D109690163012141610D
:10372000F0BD0000002C01400004004000080040F3
:1037300010B5846842EA032224F47F440A432243FA
:10374000826010BD826822F070020A4342F00701D5
:103750008160704710B5036A046A24F001040462B2
:10376000846924F0F00444EA021423F00A020A43B4
:103770008461026210BD10B5036A23F01003036276
:103780008369046A23F4704343EA023224F0A003FD
:1037900043EA01118261016210BD10B5406A002147
:1037A000C185C184FFF71CF810BD0168CA6822F406
:1037B0009072CA6001684A6922F001024A61016B95
:1037C000012904D10168CA6822F01002CA602021D0
:1037D00080F83E1000210163704708B590F83E1054
:1037E000222901D0022008BD82684FF480539A42FA
:1037F00001D1016921B1816A9A421BD04AB10AE024
:103800000268816A5268C2F308020A80816A891CD0
:1038100008E0026972B10268526802F07F020A7021
:10382000816A491C8162C18D491E0904090CC18548
:1038300003D019E002685268F1E70168CA6822F013
:103840002002CA600168CA6822F48072CA600168F6
:103850004A6922F001024A61202180F83E10016B82
:10386000012903D0FFF78CF9002008BD0021016376
:103870000168CA6822F01002CA6001680A68D206AC
:1038800002D50A6849680091818DFEF7A8FFEBE731
:1038900070B5044600680169E26821F440511143A3
:1038A00001612169A0680843616908432168CA6809
:1038B00041F20C639A430243CA6020684169A269DD
:1038C00021F44071114341611E492068884202D1B0
:1038D000FEF744FB01E0FEF731FB00EBC00101EB1A
:1038E0000012606864218000B2FBF0F3B3FBF1F3D7
:1038F0006FF018067343B2FBF0F5B2FBF0F605EB80
:103900008305322303EB0515B5FBF1F5B6FBF1F6A4
:1039100005F0F00505EB0615B2FBF0F6B2FBF0F092
:10392000B0FBF1F06FF01802504306EB800003EBA0
:103930000010B0FBF1F0216800F00F00284488600F
:1039400070BD00000038014081628285C28500217F
:103950000164222280F83E2080F83C100168CA6889
:1039600042F48072CA6001684A6942F001024A6109
:103970000068C16841F02001C160002070472DE956
:10398000F041984617460E460446069D1DE0681C09
:103990001BD02DB1FDF7DAFCA0EB0800A84214D92A
:1039A0002068C16821F4D071C1602068416921F0AC
:1039B00001014161202084F83D0084F83E00002090
:1039C00084F83C000320BDE8F0812068006836EAF6
:1039D000000004D00020B842D9D00020F3E7012035
:1039E000F9E700000148FEF7FDBE0000740A002060
:1039F0000148FEF7F7BE0000B80A00200148FDF7B5
:103A000005B9000068090020FEE700000FB4054B6F
:103A100010B503A9044A029800F028F810BC5DF81C
:103A200014FB0000AD3F0008000100200907090E4B
:103A3000002804DB00F1E02080F80014704700F05B
:103A40000F0000F1E02080F8141D704702E008C864
:103A5000121F08C1002AFAD170477047002001E008
:103A600001C1121F002AFBD1704700002DE9FF4F52
:103A70008DB09B460F460446002606E025280BD055
:103A80005A460F999047641C761C20780028F5D17F
:103A900011B03046BDE8F08F0025A84601229849B4
:103AA00000E0054314F8013F203B02FA03F008420E
:103AB000F7D120782E2817D114F8010F45F004050E
:103AC0002A280ED06FF02F022078A0F130010929AA
:103AD0000AD808EB880102EB410100EB0108641CE5
:103AE000F2E757F8048B641C20786C280DD004DCB6
:103AF0004C2812D06A2811D104E074280DD07A28FD
:103B00000CD10AE045F4001507E0617845F4801512
:103B1000814202D1641C05F58015641C2278692A53
:103B200045D008DC002AB3D0582A69D0632A10D0C7
:103B3000642A08D13BE0702A67D0732A13D0752A13
:103B40005CD0782A5CD010465A460F999047761C74
:103B5000D3E017F8040B8DF8000000208DF8010069
:103B6000E946012003E057F8049B4FF0FF30690756
:103B70004FF0000501D40AE06D1C45450DDA854281
:103B8000FADB19F805100029F6D106E06D1C854214
:103B9000FCDB19F805100029F8D12E4404E019F8CF
:103BA000010B5A460F9990476D1EF8D2A5E00A20E6
:103BB0000021CDE90801C5F3025002280DD001CF44
:103BC000C117031E71F100030DDA4FF0000CD0EBAA
:103BD0000C006CEB01012D2308E0FF1D27F0070707
:103BE000F7E80201EDE72B0504D52B238DF82830EB
:103BF00001233BE0EB0739D02023F7E70A2000E060
:103C000010200021CDE9080107E01020002145F037
:103C10000405CDE908014FF00808C5F30250022859
:103C20000FD001CF00214FF0000A2B071FD5702ABB
:103C30000DD0DDE908C38CF0100C5CEA030C0CD04D
:103C400015E0FF1D27F00707F7E80201EBE7402228
:103C50008DF828204FF0010A0BE050EA010306D04E
:103C600030238DF828308DF8292002239A46582ACF
:103C700004D024A20DF120090B9209E026A2F9E755
:103C8000DDE90823FCF782FA0B9B9B5C09F8013DF8
:103C900050EA0102F4D1ADEB09002030089068072A
:103CA00001D44FF001080899884502DDA8EB010016
:103CB00000E000208046002506E00AA85A46405D44
:103CC0000F9990476D1C761C5545F6DB04E03020BB
:103CD0005A460F999047761CB8F10001A8F10108E7
:103CE000F5DC05E019F8010B5A460F999047761C50
:103CF0000899481E08900029F4DC641CC5E6000001
:103D000009280100303132333435363738396162B1
:103D10006364656600000000303132333435363775
:103D200038394142434445460000000010B504467E
:103D300001460EA0FFF76AFE61000120884010498D
:103D40000A8B1040088305D02146BDE810400DA025
:103D5000FFF75CBE0A4804EB84015030002200F8F3
:103D6000212000EB81003222427010BD436C6F7342
:103D70006520446F6F7220256420210D0A00000029
:103D800000000020446F6F72202564206973206159
:103D90006C726561647920636C6F73656420210DBA
:103DA0000A00000030B5534953A2014485B0C878D9
:103DB0000D79D2E90012CDE9001251A302AC0ECB6D
:103DC00084E80E00A32848D006DCA0280DD0A12846
:103DD00020D0A22804D13BE0B12876D0B2287ED0F2
:103DE0004AA0FFF713FE05B030BD4CA0FFF70EFE52
:103DF0005FF0000425FA04F0C00706D021464BA06E
:103E0000FFF704FEE0B200F0C1FA641C082CF1DBFD
:103E1000A02012E04AA0FFF7F9FD002425FA04F0E3
:103E2000C00706D021464AA0FFF7F0FDE0B2FFF739
:103E30007DFF641C082CF1DBA1208DF80300052117
:103E40006846FCF709FB8DF805000621684637E057
:103E500044A0FFF7DBFDA220EFE745A0FFF7D6FD6A
:103E60000A20FCF751FA474C20800B20FCF74CFA53
:103E700060800C20FCF748FAA0800D20FCF744FA83
:103E8000E0800820FCF740FA208100F0A9F88DF8C6
:103E90000C0064208DF80D0022208DF80E008DF8A6
:103EA00010008DF80F008DF8110000208DF8120021
:103EB0000B2102A8FCF7D0FA8DF813000C2102A800
:103EC00000F012FB8FE700E009E02FA0FFF79EFD56
:103ED000012210212F48FDF733FAB120ADE72EA0C3
:103EE000FFF794FD30480121C1610C210162B2202D
:103EF000A3E7000036050020A00400A01000000089
:103F0000A00A00A30102030405060700556E6B6EAC
:103F10006F776E20434D4420210D0A004F70656E6F
:103F200020446F6F7220210D0A0000004F70656EF3
:103F300020446F6F7220256420210D0A00000000CC
:103F4000436C6F736520446F6F7220210D0A00006F
:103F5000436C6F736520446F6F7220256420210DC0
:103F60000A000000416C61726D20210D0A00000002
:103F700047657420446F6F7220537461746520210B
:103F80000D0A0000300B00205475726E204F6E2019
:103F9000210D0A00001001405475726E204F6666B4
:103FA00020210D0A000000000000002013B50A4C7B
:103FB000012208212046FDF7C3F94FF6FF730122C5
:103FC00069460648FEF714FE002208212046FDF748
:103FD000B7F900981CBD0000000C0140740A0020D5
:103FE0002DE9F04100260B4F34460125610005FA0A
:103FF00001F0398B084207D0214607A0FFF706FDE4
:1040000005FA04F03043C6B2641C082CEEDB3046DF
:10401000BDE8F08100000020446F6F72202564200D
:104020006973206F70656E656420210D0A000000C1
:104030000448D0E90C10814201D0012070470020D3
:104040007047000000000020FDF774FDFFF7F0FA54
:10405000FFF7C8F8FFF77EF8FFF7A4F85A48594968
:10406000002501605949C0E901154FF48041C0E9BC
:10407000035145618561C5610562FDF77FF908B1AE
:1040800072B6FEE7FFF7ECF9FFF760F9FFF792F978
:10409000FFF7C4F9FCF756F94DA0FFF7B7FC4A4803
:1040A0005430FEF7DBF948489C30FEF7D7F900F0B2
:1040B000ABF94C4EDFF83081A6F10807A6F14004B9
:1040C000607A10B100F02CFA6572A07A18B147A09E
:1040D000FFF79CFCA572E07A002853D049A0FFF7B7
:1040E00095FC3878AC2813D004DCAA2845D0AB283E
:1040F00043D104E0AD281CD0BB283ED127E0FFF718
:10410000E9F9AB2131707070000AB070032109E049
:10411000AC203070B8F800107170090AB170B8F8AE
:1041200002000FE02F48FCF761F9207325646564F5
:1041300023E0AD203070B8F804007070000AB07051
:10414000B8F80600F070000A30710521EAE77A78C5
:10415000B878F978072A03D8012801D8642903D947
:104160002EA0FFF753FC08E01E4B02EB8202103337
:1041700003F8220003EB82004170A564E564256426
:104180006564E572A07810B1FFF72AFAA57020796E
:1041900010B1FFF7CFF9257100F082F9A07900285E
:1041A0008ED023A0FFF732FC32212648FBF7E3FF35
:1041B0000C490D48E571A571012238397838FEF7B0
:1041C000C9FC7DE70058004090090020A08601004E
:1041D00050726F6772616D205374617274656420F0
:1041E000210D0A0040000020300B00204D6F746F3D
:1041F000722050574D2053657474696E6720210DED
:104200000A000000526563656976652043414E20CF
:104210005375636365656420210D0A00496E7661FC
:104220006C6964206461746120210D0A0000000043
:1042300052533438355F332052657175657374217C
:1042400000000000040100202DE9F041344900275E
:104250004C1E08703D464FF48068A02801D121789B
:1042600051B12178002959D02E4E01291AD00229A6
:1042700021D0052945D12CE042460021294800F0F3
:104280007BF801222649274800F058F80122002136
:10429000234800F071F80120208220702846E58133
:1042A000BDE8F081218A7218491C21821070022118
:1042B0002170E08132E0218A7218491C218210703D
:1042C000E089401E0004000CE08127D10520207009
:1042D00024E0218A7218491C218210700620207067
:1042E000208A401EC1B20F48FCF7B6F8218A31443B
:1042F00011F8011C884204D10BA0FFF787FB0127AE
:104300000CE001220021064800F036F84246002168
:10431000044800F031F825822570E5813846BFE772
:1043200001000020360500204352432043686563A6
:104330006B204F4B20210D0A0000000030B538B132
:1043400031B1884202D98C18844212D2002305E090
:10435000002030BDCD5CC5545B1C9BB29342F9D3A9
:1043600030BD8B1813F8014C8318521E03F8014C12
:1043700092B2002AF5D130BD10B5031E05D001E080
:1043800003F8011B521E92B2FAD210BD70B504465A
:104390004100012505FA01F00D490A8B1043000484
:1043A000000C0883214604D0BDE8704009A0FFF747
:1043B0002DBB10A0FFF72AFB054804EB8401503009
:1043C000322200F8215000EB8100427070BD0000E5
:1043D00000000020446F6F72202564206973206103
:1043E0006C7265616479206F70656E656420210D63
:1043F0000A0000004F70656E20446F6F72202564C4
:1044000020210D0A000000000348024901634163B6
:104410007047000036010020000000200F4930B432
:10442000D1E90C239A4205D9D41AB4F5806F01D38F
:104430000BA004E09A4205D2934203D10FA030BCF6
:10444000FFF7E4BA154B9A4202D3A3F580620A63E0
:1044500002F8010B0A6330BC704700000000002026
:104460005253343835207175657565206275662044
:1044700069732046554C4C200D0A000052533438C5
:1044800035207175657565206275662069732046F3
:10449000554C4C2032200D0A00000000360500204B
:1044A00010B5FFF7C5FD002819D0FEF7FFFFFFF795
:1044B000CBFE002813D00020FFF774FC012200215E
:1044C0000748FFF759FF4FF4806200210548FFF7C6
:1044D00053FF03490020491E08820870C88110BD9F
:1044E000010000203605002070B50B4E0C46054635
:1044F000012208213046FCF723FF4FF6FF732246C6
:1045000029460648FEF774FB002208213046FCF7D6
:1045100017FF002070BD0000000C0140740A00204D
:104520002DE9F041FEF7D6FF214C0025E38A9842A1
:104530001AD043400021012204F1500602FA01F78B
:104540001F420CD00740CF4009D001EBD17727F0B4
:104550000107CF1B07EB870706EB87077D70491C18
:104560001029EBDB2083A2700A20FBF7CDFE114E51
:1045700030800B20FBF7C8FE70800C20FBF7C4FED8
:10458000B0800D20FBF7C0FEF0800820FBF7BCFEDA
:104590003081E069012809D1206A401E206205D1DE
:1045A000002210210448FCF7CBFEE561BDE8F08154
:1045B00000000020300B002000100140000000002F
:1045C00000000000010203040607080900000000C3
:1045D00001020304F445000800000020040100006B
:1045E0004C3A0008F8460008040100203C0E000088
:1045F0005C3A00080000000000000000000000001D
:1046000000000000000000000000FFFF00000000AC
:10461000000000000C000000D8D0001800000000CE
:10462000000000000000000000000000000000008A
:10463000000000000000000000000000000000007A
:104640000000000000000000000801400100000020
:1046500000080140020000000000000000080140C6
:1046600004000000000801400800000000000000F5
:1046700000100140800000000010014040000000D8
:104680000000000000100140000200000010014086
:1046900000010000000000000008014000020000CE
:1046A0000008014000010000000000000008014077
:1046B00000080000000801400004000000000000A5
:1046C0000014014004000000001001400010000030
:1046D00000000000000C014020000000000C014020
:1046E00010000000010000001000000000000000A9
:0846F0000024F40000000000AA
:04000005080000ED02
:00000001FF
